{
  "_format": "hh-sol-artifact-1",
  "contractName": "NFTMarketplace",
  "sourceName": "contracts/nft_marketplace.sol",
  "abi": [
    {
      "inputs": [],
      "stateMutability": "nonpayable",
      "type": "constructor"
    },
    {
      "inputs": [
        {
          "internalType": "address",
          "name": "sender",
          "type": "address"
        },
        {
          "internalType": "uint256",
          "name": "tokenId",
          "type": "uint256"
        },
        {
          "internalType": "address",
          "name": "owner",
          "type": "address"
        }
      ],
      "name": "ERC721IncorrectOwner",
      "type": "error"
    },
    {
      "inputs": [
        {
          "internalType": "address",
          "name": "operator",
          "type": "address"
        },
        {
          "internalType": "uint256",
          "name": "tokenId",
          "type": "uint256"
        }
      ],
      "name": "ERC721InsufficientApproval",
      "type": "error"
    },
    {
      "inputs": [
        {
          "internalType": "address",
          "name": "approver",
          "type": "address"
        }
      ],
      "name": "ERC721InvalidApprover",
      "type": "error"
    },
    {
      "inputs": [
        {
          "internalType": "address",
          "name": "operator",
          "type": "address"
        }
      ],
      "name": "ERC721InvalidOperator",
      "type": "error"
    },
    {
      "inputs": [
        {
          "internalType": "address",
          "name": "owner",
          "type": "address"
        }
      ],
      "name": "ERC721InvalidOwner",
      "type": "error"
    },
    {
      "inputs": [
        {
          "internalType": "address",
          "name": "receiver",
          "type": "address"
        }
      ],
      "name": "ERC721InvalidReceiver",
      "type": "error"
    },
    {
      "inputs": [
        {
          "internalType": "address",
          "name": "sender",
          "type": "address"
        }
      ],
      "name": "ERC721InvalidSender",
      "type": "error"
    },
    {
      "inputs": [
        {
          "internalType": "uint256",
          "name": "tokenId",
          "type": "uint256"
        }
      ],
      "name": "ERC721NonexistentToken",
      "type": "error"
    },
    {
      "anonymous": false,
      "inputs": [
        {
          "indexed": true,
          "internalType": "address",
          "name": "owner",
          "type": "address"
        },
        {
          "indexed": true,
          "internalType": "address",
          "name": "approved",
          "type": "address"
        },
        {
          "indexed": true,
          "internalType": "uint256",
          "name": "tokenId",
          "type": "uint256"
        }
      ],
      "name": "Approval",
      "type": "event"
    },
    {
      "anonymous": false,
      "inputs": [
        {
          "indexed": true,
          "internalType": "address",
          "name": "owner",
          "type": "address"
        },
        {
          "indexed": true,
          "internalType": "address",
          "name": "operator",
          "type": "address"
        },
        {
          "indexed": false,
          "internalType": "bool",
          "name": "approved",
          "type": "bool"
        }
      ],
      "name": "ApprovalForAll",
      "type": "event"
    },
    {
      "anonymous": false,
      "inputs": [
        {
          "indexed": false,
          "internalType": "uint256",
          "name": "_fromTokenId",
          "type": "uint256"
        },
        {
          "indexed": false,
          "internalType": "uint256",
          "name": "_toTokenId",
          "type": "uint256"
        }
      ],
      "name": "BatchMetadataUpdate",
      "type": "event"
    },
    {
      "anonymous": false,
      "inputs": [
        {
          "indexed": false,
          "internalType": "uint256",
          "name": "_tokenId",
          "type": "uint256"
        }
      ],
      "name": "MetadataUpdate",
      "type": "event"
    },
    {
      "anonymous": false,
      "inputs": [
        {
          "indexed": true,
          "internalType": "uint256",
          "name": "id",
          "type": "uint256"
        },
        {
          "indexed": false,
          "internalType": "address payable",
          "name": "contractAddress",
          "type": "address"
        },
        {
          "indexed": false,
          "internalType": "address payable",
          "name": "owner",
          "type": "address"
        },
        {
          "indexed": false,
          "internalType": "uint256",
          "name": "price",
          "type": "uint256"
        }
      ],
      "name": "NFTListed",
      "type": "event"
    },
    {
      "anonymous": false,
      "inputs": [
        {
          "indexed": true,
          "internalType": "address",
          "name": "from",
          "type": "address"
        },
        {
          "indexed": true,
          "internalType": "address",
          "name": "to",
          "type": "address"
        },
        {
          "indexed": true,
          "internalType": "uint256",
          "name": "tokenId",
          "type": "uint256"
        }
      ],
      "name": "Transfer",
      "type": "event"
    },
    {
      "inputs": [
        {
          "internalType": "address",
          "name": "to",
          "type": "address"
        },
        {
          "internalType": "uint256",
          "name": "tokenId",
          "type": "uint256"
        }
      ],
      "name": "approve",
      "outputs": [],
      "stateMutability": "nonpayable",
      "type": "function"
    },
    {
      "inputs": [
        {
          "internalType": "address",
          "name": "owner",
          "type": "address"
        }
      ],
      "name": "balanceOf",
      "outputs": [
        {
          "internalType": "uint256",
          "name": "",
          "type": "uint256"
        }
      ],
      "stateMutability": "view",
      "type": "function"
    },
    {
      "inputs": [
        {
          "internalType": "uint256",
          "name": "id",
          "type": "uint256"
        }
      ],
      "name": "buyNFT",
      "outputs": [],
      "stateMutability": "payable",
      "type": "function"
    },
    {
      "inputs": [],
      "name": "getAllNFTs",
      "outputs": [
        {
          "components": [
            {
              "internalType": "uint256",
              "name": "id",
              "type": "uint256"
            },
            {
              "internalType": "address payable",
              "name": "contractAddress",
              "type": "address"
            },
            {
              "internalType": "address payable",
              "name": "owner",
              "type": "address"
            },
            {
              "internalType": "uint256",
              "name": "price",
              "type": "uint256"
            },
            {
              "internalType": "uint256",
              "name": "totalNFTs",
              "type": "uint256"
            }
          ],
          "internalType": "struct NFTMarketplace.NFT[]",
          "name": "",
          "type": "tuple[]"
        }
      ],
      "stateMutability": "view",
      "type": "function"
    },
    {
      "inputs": [
        {
          "internalType": "uint256",
          "name": "tokenId",
          "type": "uint256"
        }
      ],
      "name": "getApproved",
      "outputs": [
        {
          "internalType": "address",
          "name": "",
          "type": "address"
        }
      ],
      "stateMutability": "view",
      "type": "function"
    },
    {
      "inputs": [],
      "name": "getMyNfts",
      "outputs": [
        {
          "components": [
            {
              "internalType": "uint256",
              "name": "id",
              "type": "uint256"
            },
            {
              "internalType": "address payable",
              "name": "contractAddress",
              "type": "address"
            },
            {
              "internalType": "address payable",
              "name": "owner",
              "type": "address"
            },
            {
              "internalType": "uint256",
              "name": "price",
              "type": "uint256"
            },
            {
              "internalType": "uint256",
              "name": "totalNFTs",
              "type": "uint256"
            }
          ],
          "internalType": "struct NFTMarketplace.NFT[]",
          "name": "",
          "type": "tuple[]"
        }
      ],
      "stateMutability": "view",
      "type": "function"
    },
    {
      "inputs": [
        {
          "internalType": "address",
          "name": "owner",
          "type": "address"
        },
        {
          "internalType": "address",
          "name": "operator",
          "type": "address"
        }
      ],
      "name": "isApprovedForAll",
      "outputs": [
        {
          "internalType": "bool",
          "name": "",
          "type": "bool"
        }
      ],
      "stateMutability": "view",
      "type": "function"
    },
    {
      "inputs": [],
      "name": "listingPrice",
      "outputs": [
        {
          "internalType": "uint256",
          "name": "",
          "type": "uint256"
        }
      ],
      "stateMutability": "view",
      "type": "function"
    },
    {
      "inputs": [
        {
          "internalType": "string",
          "name": "_tokenURI",
          "type": "string"
        },
        {
          "internalType": "uint256",
          "name": "price",
          "type": "uint256"
        }
      ],
      "name": "mintNFT",
      "outputs": [],
      "stateMutability": "payable",
      "type": "function"
    },
    {
      "inputs": [],
      "name": "name",
      "outputs": [
        {
          "internalType": "string",
          "name": "",
          "type": "string"
        }
      ],
      "stateMutability": "view",
      "type": "function"
    },
    {
      "inputs": [
        {
          "internalType": "uint256",
          "name": "tokenId",
          "type": "uint256"
        }
      ],
      "name": "ownerOf",
      "outputs": [
        {
          "internalType": "address",
          "name": "",
          "type": "address"
        }
      ],
      "stateMutability": "view",
      "type": "function"
    },
    {
      "inputs": [
        {
          "internalType": "address",
          "name": "from",
          "type": "address"
        },
        {
          "internalType": "address",
          "name": "to",
          "type": "address"
        },
        {
          "internalType": "uint256",
          "name": "tokenId",
          "type": "uint256"
        }
      ],
      "name": "safeTransferFrom",
      "outputs": [],
      "stateMutability": "nonpayable",
      "type": "function"
    },
    {
      "inputs": [
        {
          "internalType": "address",
          "name": "from",
          "type": "address"
        },
        {
          "internalType": "address",
          "name": "to",
          "type": "address"
        },
        {
          "internalType": "uint256",
          "name": "tokenId",
          "type": "uint256"
        },
        {
          "internalType": "bytes",
          "name": "data",
          "type": "bytes"
        }
      ],
      "name": "safeTransferFrom",
      "outputs": [],
      "stateMutability": "nonpayable",
      "type": "function"
    },
    {
      "inputs": [
        {
          "internalType": "address",
          "name": "operator",
          "type": "address"
        },
        {
          "internalType": "bool",
          "name": "approved",
          "type": "bool"
        }
      ],
      "name": "setApprovalForAll",
      "outputs": [],
      "stateMutability": "nonpayable",
      "type": "function"
    },
    {
      "inputs": [
        {
          "internalType": "bytes4",
          "name": "interfaceId",
          "type": "bytes4"
        }
      ],
      "name": "supportsInterface",
      "outputs": [
        {
          "internalType": "bool",
          "name": "",
          "type": "bool"
        }
      ],
      "stateMutability": "view",
      "type": "function"
    },
    {
      "inputs": [],
      "name": "symbol",
      "outputs": [
        {
          "internalType": "string",
          "name": "",
          "type": "string"
        }
      ],
      "stateMutability": "view",
      "type": "function"
    },
    {
      "inputs": [
        {
          "internalType": "uint256",
          "name": "tokenId",
          "type": "uint256"
        }
      ],
      "name": "tokenURI",
      "outputs": [
        {
          "internalType": "string",
          "name": "",
          "type": "string"
        }
      ],
      "stateMutability": "view",
      "type": "function"
    },
    {
      "inputs": [
        {
          "internalType": "address",
          "name": "from",
          "type": "address"
        },
        {
          "internalType": "address",
          "name": "to",
          "type": "address"
        },
        {
          "internalType": "uint256",
          "name": "tokenId",
          "type": "uint256"
        }
      ],
      "name": "transferFrom",
      "outputs": [],
      "stateMutability": "nonpayable",
      "type": "function"
    }
  ],
  "bytecode": "0x6080604052629896806008553480156200001857600080fd5b506040518060400160405280600c81526020017f4564756361746976654e465400000000000000000000000000000000000000008152506040518060400160405280600681526020017f4544554e4654000000000000000000000000000000000000000000000000000081525081600090816200009691906200036c565b508060019081620000a891906200036c565b50505033600760006101000a81548173ffffffffffffffffffffffffffffffffffffffff021916908373ffffffffffffffffffffffffffffffffffffffff16021790555062000453565b600081519050919050565b7f4e487b7100000000000000000000000000000000000000000000000000000000600052604160045260246000fd5b7f4e487b7100000000000000000000000000000000000000000000000000000000600052602260045260246000fd5b600060028204905060018216806200017457607f821691505b6020821081036200018a57620001896200012c565b5b50919050565b60008190508160005260206000209050919050565b60006020601f8301049050919050565b600082821b905092915050565b600060088302620001f47fffffffffffffffffffffffffffffffffffffffffffffffffffffffffffffffff82620001b5565b620002008683620001b5565b95508019841693508086168417925050509392505050565b6000819050919050565b6000819050919050565b60006200024d62000247620002418462000218565b62000222565b62000218565b9050919050565b6000819050919050565b62000269836200022c565b62000281620002788262000254565b848454620001c2565b825550505050565b600090565b6200029862000289565b620002a58184846200025e565b505050565b5b81811015620002cd57620002c16000826200028e565b600181019050620002ab565b5050565b601f8211156200031c57620002e68162000190565b620002f184620001a5565b8101602085101562000301578190505b620003196200031085620001a5565b830182620002aa565b50505b505050565b600082821c905092915050565b6000620003416000198460080262000321565b1980831691505092915050565b60006200035c83836200032e565b9150826002028217905092915050565b6200037782620000f2565b67ffffffffffffffff811115620003935762000392620000fd565b5b6200039f82546200015b565b620003ac828285620002d1565b600060209050601f831160018114620003e45760008415620003cf578287015190505b620003db85826200034e565b8655506200044b565b601f198416620003f48662000190565b60005b828110156200041e57848901518255600182019150602085019450602081019050620003f7565b868310156200043e57848901516200043a601f8916826200032e565b8355505b6001600288020188555050505b505050505050565b61366180620004636000396000f3fe6080604052600436106101095760003560e01c80636352211e11610095578063b88d4fde11610064578063b88d4fde1461035f578063c78f19f914610388578063c87b56dd146103b3578063e0391b09146103f0578063e985e9c51461041b57610109565b80636352211e1461029157806370a08231146102ce57806395d89b411461030b578063a22cb4651461033657610109565b8063095ea7b3116100dc578063095ea7b3146101de57806323b872dd1461020757806342842e0e1461023057806351ed8288146102595780635afa3a721461027557610109565b806301ffc9a71461010e578063047b07bf1461014b57806306fdde0314610176578063081812fc146101a1575b600080fd5b34801561011a57600080fd5b50610135600480360381019061013091906125bb565b610458565b6040516101429190612603565b60405180910390f35b34801561015757600080fd5b506101606104b9565b60405161016d919061278f565b60405180910390f35b34801561018257600080fd5b5061018b6107cb565b6040516101989190612841565b60405180910390f35b3480156101ad57600080fd5b506101c860048036038101906101c3919061288f565b61085d565b6040516101d591906128dd565b60405180910390f35b3480156101ea57600080fd5b5061020560048036038101906102009190612924565b610879565b005b34801561021357600080fd5b5061022e60048036038101906102299190612964565b61088f565b005b34801561023c57600080fd5b5061025760048036038101906102529190612964565b610991565b005b610273600480360381019061026e919061288f565b6109b1565b005b61028f600480360381019061028a9190612aec565b610c15565b005b34801561029d57600080fd5b506102b860048036038101906102b3919061288f565b610f23565b6040516102c591906128dd565b60405180910390f35b3480156102da57600080fd5b506102f560048036038101906102f09190612b48565b610f35565b6040516103029190612b84565b60405180910390f35b34801561031757600080fd5b50610320610fef565b60405161032d9190612841565b60405180910390f35b34801561034257600080fd5b5061035d60048036038101906103589190612bcb565b611081565b005b34801561036b57600080fd5b5061038660048036038101906103819190612cac565b611097565b005b34801561039457600080fd5b5061039d6110b4565b6040516103aa9190612b84565b60405180910390f35b3480156103bf57600080fd5b506103da60048036038101906103d5919061288f565b6110ba565b6040516103e79190612841565b60405180910390f35b3480156103fc57600080fd5b506104056111cd565b604051610412919061278f565b60405180910390f35b34801561042757600080fd5b50610442600480360381019061043d9190612d2f565b6113d1565b60405161044f9190612603565b60405180910390f35b6000634906490660e01b7bffffffffffffffffffffffffffffffffffffffffffffffffffffffff1916827bffffffffffffffffffffffffffffffffffffffffffffffffffffffff191614806104b257506104b182611465565b5b9050919050565b6060600073__$a4f9da994b5e7e38293d52926a450b0d7d$__63d602012f60096040518263ffffffff1660e01b81526004016104f59190612d76565b602060405180830381865af4158015610512573d6000803e3d6000fd5b505050506040513d601f19601f820116820180604052508101906105369190612da6565b90506000805b828110156105ca573373ffffffffffffffffffffffffffffffffffffffff16600a600083815260200190815260200160002060020160009054906101000a900473ffffffffffffffffffffffffffffffffffffffff1673ffffffffffffffffffffffffffffffffffffffff16036105bd576001826105ba9190612e02565b91505b808060010191505061053c565b5060008167ffffffffffffffff8111156105e7576105e66129c1565b5b60405190808252806020026020018201604052801561062057816020015b61060d6124f4565b8152602001906001900390816106055790505b5090506000805b848110156107c0573373ffffffffffffffffffffffffffffffffffffffff16600a600083815260200190815260200160002060020160009054906101000a900473ffffffffffffffffffffffffffffffffffffffff1673ffffffffffffffffffffffffffffffffffffffff16036107b3576000600a60008381526020019081526020016000209050806040518060a0016040529081600082015481526020016001820160009054906101000a900473ffffffffffffffffffffffffffffffffffffffff1673ffffffffffffffffffffffffffffffffffffffff1673ffffffffffffffffffffffffffffffffffffffff1681526020016002820160009054906101000a900473ffffffffffffffffffffffffffffffffffffffff1673ffffffffffffffffffffffffffffffffffffffff1673ffffffffffffffffffffffffffffffffffffffff1681526020016003820154815260200160048201548152505084848151811061079857610797612e36565b5b602002602001018190525082806107ae90612e65565b935050505b8080600101915050610627565b508194505050505090565b6060600080546107da90612edc565b80601f016020809104026020016040519081016040528092919081815260200182805461080690612edc565b80156108535780601f1061082857610100808354040283529160200191610853565b820191906000526020600020905b81548152906001019060200180831161083657829003601f168201915b5050505050905090565b600061086882611547565b50610872826115cf565b9050919050565b61088b828261088661160c565b611614565b5050565b600073ffffffffffffffffffffffffffffffffffffffff168273ffffffffffffffffffffffffffffffffffffffff16036109015760006040517f64a0ae920000000000000000000000000000000000000000000000000000000081526004016108f891906128dd565b60405180910390fd5b6000610915838361091061160c565b611626565b90508373ffffffffffffffffffffffffffffffffffffffff168173ffffffffffffffffffffffffffffffffffffffff161461098b578382826040517f64283d7b00000000000000000000000000000000000000000000000000000000815260040161098293929190612f0d565b60405180910390fd5b50505050565b6109ac83838360405180602001604052806000815250611097565b505050565b73__$a4f9da994b5e7e38293d52926a450b0d7d$__63d602012f60096040518263ffffffff1660e01b81526004016109e99190612d76565b602060405180830381865af4158015610a06573d6000803e3d6000fd5b505050506040513d601f19601f82011682018060405250810190610a2a9190612da6565b8110610a6b576040517f08c379a0000000000000000000000000000000000000000000000000000000008152600401610a6290612f90565b60405180910390fd5b6000600a60008381526020019081526020016000206003015490506000600a600084815260200190815260200160002060020160009054906101000a900473ffffffffffffffffffffffffffffffffffffffff169050813414610b03576040517f08c379a0000000000000000000000000000000000000000000000000000000008152600401610afa90612ffc565b60405180910390fd5b60008173ffffffffffffffffffffffffffffffffffffffff1634604051610b299061304d565b60006040518083038185875af1925050503d8060008114610b66576040519150601f19603f3d011682016040523d82523d6000602084013e610b6b565b606091505b5050905080610baf576040517f08c379a0000000000000000000000000000000000000000000000000000000008152600401610ba6906130ae565b60405180910390fd5b33600a600086815260200190815260200160002060020160006101000a81548173ffffffffffffffffffffffffffffffffffffffff021916908373ffffffffffffffffffffffffffffffffffffffff160217905550610c0f823386611840565b50505050565b600073__$a4f9da994b5e7e38293d52926a450b0d7d$__63d602012f60096040518263ffffffff1660e01b8152600401610c4f9190612d76565b602060405180830381865af4158015610c6c573d6000803e3d6000fd5b505050506040513d601f19601f82011682018060405250810190610c909190612da6565b90506008543373ffffffffffffffffffffffffffffffffffffffff16311015610cee576040517f08c379a0000000000000000000000000000000000000000000000000000000008152600401610ce59061311a565b60405180910390fd5b610cf833826119ad565b610d0281846119cb565b6000600a60008381526020019081526020016000209050308160010160006101000a81548173ffffffffffffffffffffffffffffffffffffffff021916908373ffffffffffffffffffffffffffffffffffffffff160217905550338160020160006101000a81548173ffffffffffffffffffffffffffffffffffffffff021916908373ffffffffffffffffffffffffffffffffffffffff1602179055508281600301819055506000600760009054906101000a900473ffffffffffffffffffffffffffffffffffffffff1673ffffffffffffffffffffffffffffffffffffffff16600854604051610df29061304d565b60006040518083038185875af1925050503d8060008114610e2f576040519150601f19603f3d011682016040523d82523d6000602084013e610e34565b606091505b5050905080610e78576040517f08c379a0000000000000000000000000000000000000000000000000000000008152600401610e6f906131ac565b60405180910390fd5b827f62af98dbc3627e85c5eb929b032d3ce3d6c376652d71b4cca6162a16ef099114303387604051610eac939291906131db565b60405180910390a273__$a4f9da994b5e7e38293d52926a450b0d7d$__634678317260096040518263ffffffff1660e01b8152600401610eec9190612d76565b60006040518083038186803b158015610f0457600080fd5b505af4158015610f18573d6000803e3d6000fd5b505050505050505050565b6000610f2e82611547565b9050919050565b60008073ffffffffffffffffffffffffffffffffffffffff168273ffffffffffffffffffffffffffffffffffffffff1603610fa85760006040517f89c62b64000000000000000000000000000000000000000000000000000000008152600401610f9f91906128dd565b60405180910390fd5b600360008373ffffffffffffffffffffffffffffffffffffffff1673ffffffffffffffffffffffffffffffffffffffff168152602001908152602001600020549050919050565b606060018054610ffe90612edc565b80601f016020809104026020016040519081016040528092919081815260200182805461102a90612edc565b80156110775780601f1061104c57610100808354040283529160200191611077565b820191906000526020600020905b81548152906001019060200180831161105a57829003601f168201915b5050505050905090565b61109361108c61160c565b8383611a27565b5050565b6110a284848461088f565b6110ae84848484611b96565b50505050565b60085481565b60606110c582611547565b5060006006600084815260200190815260200160002080546110e690612edc565b80601f016020809104026020016040519081016040528092919081815260200182805461111290612edc565b801561115f5780601f106111345761010080835404028352916020019161115f565b820191906000526020600020905b81548152906001019060200180831161114257829003601f168201915b505050505090506000611170611d4d565b905060008151036111855781925050506111c8565b6000825111156111ba5780826040516020016111a292919061324e565b604051602081830303815290604052925050506111c8565b6111c384611d64565b925050505b919050565b6060600073__$a4f9da994b5e7e38293d52926a450b0d7d$__63d602012f60096040518263ffffffff1660e01b81526004016112099190612d76565b602060405180830381865af4158015611226573d6000803e3d6000fd5b505050506040513d601f19601f8201168201806040525081019061124a9190612da6565b905060008167ffffffffffffffff811115611268576112676129c1565b5b6040519080825280602002602001820160405280156112a157816020015b61128e6124f4565b8152602001906001900390816112865790505b50905060005b828110156113c8576000600a60008381526020019081526020016000209050806040518060a0016040529081600082015481526020016001820160009054906101000a900473ffffffffffffffffffffffffffffffffffffffff1673ffffffffffffffffffffffffffffffffffffffff1673ffffffffffffffffffffffffffffffffffffffff1681526020016002820160009054906101000a900473ffffffffffffffffffffffffffffffffffffffff1673ffffffffffffffffffffffffffffffffffffffff1673ffffffffffffffffffffffffffffffffffffffff168152602001600382015481526020016004820154815250508383815181106113af576113ae612e36565b5b60200260200101819052505080806001019150506112a7565b50809250505090565b6000600560008473ffffffffffffffffffffffffffffffffffffffff1673ffffffffffffffffffffffffffffffffffffffff16815260200190815260200160002060008373ffffffffffffffffffffffffffffffffffffffff1673ffffffffffffffffffffffffffffffffffffffff16815260200190815260200160002060009054906101000a900460ff16905092915050565b60007f80ac58cd000000000000000000000000000000000000000000000000000000007bffffffffffffffffffffffffffffffffffffffffffffffffffffffff1916827bffffffffffffffffffffffffffffffffffffffffffffffffffffffff1916148061153057507f5b5e139f000000000000000000000000000000000000000000000000000000007bffffffffffffffffffffffffffffffffffffffffffffffffffffffff1916827bffffffffffffffffffffffffffffffffffffffffffffffffffffffff1916145b80611540575061153f82611dcd565b5b9050919050565b60008061155383611e37565b9050600073ffffffffffffffffffffffffffffffffffffffff168173ffffffffffffffffffffffffffffffffffffffff16036115c657826040517f7e2732890000000000000000000000000000000000000000000000000000000081526004016115bd9190612b84565b60405180910390fd5b80915050919050565b60006004600083815260200190815260200160002060009054906101000a900473ffffffffffffffffffffffffffffffffffffffff169050919050565b600033905090565b6116218383836001611e74565b505050565b60008061163284611e37565b9050600073ffffffffffffffffffffffffffffffffffffffff168373ffffffffffffffffffffffffffffffffffffffff161461167457611673818486612039565b5b600073ffffffffffffffffffffffffffffffffffffffff168173ffffffffffffffffffffffffffffffffffffffff1614611705576116b6600085600080611e74565b6001600360008373ffffffffffffffffffffffffffffffffffffffff1673ffffffffffffffffffffffffffffffffffffffff168152602001908152602001600020600082825403925050819055505b600073ffffffffffffffffffffffffffffffffffffffff168573ffffffffffffffffffffffffffffffffffffffff1614611788576001600360008773ffffffffffffffffffffffffffffffffffffffff1673ffffffffffffffffffffffffffffffffffffffff168152602001908152602001600020600082825401925050819055505b846002600086815260200190815260200160002060006101000a81548173ffffffffffffffffffffffffffffffffffffffff021916908373ffffffffffffffffffffffffffffffffffffffff160217905550838573ffffffffffffffffffffffffffffffffffffffff168273ffffffffffffffffffffffffffffffffffffffff167fddf252ad1be2c89b69c2b068fc378daa952ba7f163c4a11628f55a4df523b3ef60405160405180910390a4809150509392505050565b600073ffffffffffffffffffffffffffffffffffffffff168273ffffffffffffffffffffffffffffffffffffffff16036118b25760006040517f64a0ae920000000000000000000000000000000000000000000000000000000081526004016118a991906128dd565b60405180910390fd5b60006118c083836000611626565b9050600073ffffffffffffffffffffffffffffffffffffffff168173ffffffffffffffffffffffffffffffffffffffff160361193357816040517f7e27328900000000000000000000000000000000000000000000000000000000815260040161192a9190612b84565b60405180910390fd5b8373ffffffffffffffffffffffffffffffffffffffff168173ffffffffffffffffffffffffffffffffffffffff16146119a7578382826040517f64283d7b00000000000000000000000000000000000000000000000000000000815260040161199e93929190612f0d565b60405180910390fd5b50505050565b6119c78282604051806020016040528060008152506120fd565b5050565b806006600084815260200190815260200160002090816119eb919061341e565b507ff8e1a15aba9398e019f0b49df1a4fde98ee17ae345cb5f6b5e2c27f5033e8ce782604051611a1b9190612b84565b60405180910390a15050565b600073ffffffffffffffffffffffffffffffffffffffff168273ffffffffffffffffffffffffffffffffffffffff1603611a9857816040517f5b08ba18000000000000000000000000000000000000000000000000000000008152600401611a8f91906128dd565b60405180910390fd5b80600560008573ffffffffffffffffffffffffffffffffffffffff1673ffffffffffffffffffffffffffffffffffffffff16815260200190815260200160002060008473ffffffffffffffffffffffffffffffffffffffff1673ffffffffffffffffffffffffffffffffffffffff16815260200190815260200160002060006101000a81548160ff0219169083151502179055508173ffffffffffffffffffffffffffffffffffffffff168373ffffffffffffffffffffffffffffffffffffffff167f17307eab39ab6107e8899845ad3d59bd9653f200f220920489ca2b5937696c3183604051611b899190612603565b60405180910390a3505050565b60008373ffffffffffffffffffffffffffffffffffffffff163b1115611d47578273ffffffffffffffffffffffffffffffffffffffff1663150b7a02611bda61160c565b8685856040518563ffffffff1660e01b8152600401611bfc9493929190613545565b6020604051808303816000875af1925050508015611c3857506040513d601f19601f82011682018060405250810190611c3591906135a6565b60015b611cbc573d8060008114611c68576040519150601f19603f3d011682016040523d82523d6000602084013e611c6d565b606091505b506000815103611cb457836040517f64a0ae92000000000000000000000000000000000000000000000000000000008152600401611cab91906128dd565b60405180910390fd5b805181602001fd5b63150b7a0260e01b7bffffffffffffffffffffffffffffffffffffffffffffffffffffffff1916817bffffffffffffffffffffffffffffffffffffffffffffffffffffffff191614611d4557836040517f64a0ae92000000000000000000000000000000000000000000000000000000008152600401611d3c91906128dd565b60405180910390fd5b505b50505050565b606060405180602001604052806000815250905090565b6060611d6f82611547565b506000611d7a611d4d565b90506000815111611d9a5760405180602001604052806000815250611dc5565b80611da484612119565b604051602001611db592919061324e565b6040516020818303038152906040525b915050919050565b60007f01ffc9a7000000000000000000000000000000000000000000000000000000007bffffffffffffffffffffffffffffffffffffffffffffffffffffffff1916827bffffffffffffffffffffffffffffffffffffffffffffffffffffffff1916149050919050565b60006002600083815260200190815260200160002060009054906101000a900473ffffffffffffffffffffffffffffffffffffffff169050919050565b8080611ead5750600073ffffffffffffffffffffffffffffffffffffffff168273ffffffffffffffffffffffffffffffffffffffff1614155b15611fe1576000611ebd84611547565b9050600073ffffffffffffffffffffffffffffffffffffffff168373ffffffffffffffffffffffffffffffffffffffff1614158015611f2857508273ffffffffffffffffffffffffffffffffffffffff168173ffffffffffffffffffffffffffffffffffffffff1614155b8015611f3b5750611f3981846113d1565b155b15611f7d57826040517fa9fbf51f000000000000000000000000000000000000000000000000000000008152600401611f7491906128dd565b60405180910390fd5b8115611fdf57838573ffffffffffffffffffffffffffffffffffffffff168273ffffffffffffffffffffffffffffffffffffffff167f8c5be1e5ebec7d5bd14f71427d1e84f3dd0314c0f7b2291e5b200ac8c7c3b92560405160405180910390a45b505b836004600085815260200190815260200160002060006101000a81548173ffffffffffffffffffffffffffffffffffffffff021916908373ffffffffffffffffffffffffffffffffffffffff16021790555050505050565b6120448383836121e7565b6120f857600073ffffffffffffffffffffffffffffffffffffffff168373ffffffffffffffffffffffffffffffffffffffff16036120b957806040517f7e2732890000000000000000000000000000000000000000000000000000000081526004016120b09190612b84565b60405180910390fd5b81816040517f177e802f0000000000000000000000000000000000000000000000000000000081526004016120ef9291906135d3565b60405180910390fd5b505050565b61210783836122a8565b6121146000848484611b96565b505050565b606060006001612128846123a1565b01905060008167ffffffffffffffff811115612147576121466129c1565b5b6040519080825280601f01601f1916602001820160405280156121795781602001600182028036833780820191505090505b509050600082602001820190505b6001156121dc578080600190039150507f3031323334353637383961626364656600000000000000000000000000000000600a86061a8153600a85816121d0576121cf6135fc565b5b04945060008503612187575b819350505050919050565b60008073ffffffffffffffffffffffffffffffffffffffff168373ffffffffffffffffffffffffffffffffffffffff161415801561229f57508273ffffffffffffffffffffffffffffffffffffffff168473ffffffffffffffffffffffffffffffffffffffff161480612260575061225f84846113d1565b5b8061229e57508273ffffffffffffffffffffffffffffffffffffffff16612286836115cf565b73ffffffffffffffffffffffffffffffffffffffff16145b5b90509392505050565b600073ffffffffffffffffffffffffffffffffffffffff168273ffffffffffffffffffffffffffffffffffffffff160361231a5760006040517f64a0ae9200000000000000000000000000000000000000000000000000000000815260040161231191906128dd565b60405180910390fd5b600061232883836000611626565b9050600073ffffffffffffffffffffffffffffffffffffffff168173ffffffffffffffffffffffffffffffffffffffff161461239c5760006040517f73c6ac6e00000000000000000000000000000000000000000000000000000000815260040161239391906128dd565b60405180910390fd5b505050565b600080600090507a184f03e93ff9f4daa797ed6e38ed64bf6a1f01000000000000000083106123ff577a184f03e93ff9f4daa797ed6e38ed64bf6a1f01000000000000000083816123f5576123f46135fc565b5b0492506040810190505b6d04ee2d6d415b85acef8100000000831061243c576d04ee2d6d415b85acef81000000008381612432576124316135fc565b5b0492506020810190505b662386f26fc10000831061246b57662386f26fc100008381612461576124606135fc565b5b0492506010810190505b6305f5e1008310612494576305f5e100838161248a576124896135fc565b5b0492506008810190505b61271083106124b95761271083816124af576124ae6135fc565b5b0492506004810190505b606483106124dc57606483816124d2576124d16135fc565b5b0492506002810190505b600a83106124eb576001810190505b80915050919050565b6040518060a0016040528060008152602001600073ffffffffffffffffffffffffffffffffffffffff168152602001600073ffffffffffffffffffffffffffffffffffffffff16815260200160008152602001600081525090565b6000604051905090565b600080fd5b600080fd5b60007fffffffff0000000000000000000000000000000000000000000000000000000082169050919050565b61259881612563565b81146125a357600080fd5b50565b6000813590506125b58161258f565b92915050565b6000602082840312156125d1576125d0612559565b5b60006125df848285016125a6565b91505092915050565b60008115159050919050565b6125fd816125e8565b82525050565b600060208201905061261860008301846125f4565b92915050565b600081519050919050565b600082825260208201905092915050565b6000819050602082019050919050565b6000819050919050565b61265d8161264a565b82525050565b600073ffffffffffffffffffffffffffffffffffffffff82169050919050565b600061268e82612663565b9050919050565b61269e81612683565b82525050565b60a0820160008201516126ba6000850182612654565b5060208201516126cd6020850182612695565b5060408201516126e06040850182612695565b5060608201516126f36060850182612654565b5060808201516127066080850182612654565b50505050565b600061271883836126a4565b60a08301905092915050565b6000602082019050919050565b600061273c8261261e565b6127468185612629565b93506127518361263a565b8060005b83811015612782578151612769888261270c565b975061277483612724565b925050600181019050612755565b5085935050505092915050565b600060208201905081810360008301526127a98184612731565b905092915050565b600081519050919050565b600082825260208201905092915050565b60005b838110156127eb5780820151818401526020810190506127d0565b60008484015250505050565b6000601f19601f8301169050919050565b6000612813826127b1565b61281d81856127bc565b935061282d8185602086016127cd565b612836816127f7565b840191505092915050565b6000602082019050818103600083015261285b8184612808565b905092915050565b61286c8161264a565b811461287757600080fd5b50565b60008135905061288981612863565b92915050565b6000602082840312156128a5576128a4612559565b5b60006128b38482850161287a565b91505092915050565b60006128c782612663565b9050919050565b6128d7816128bc565b82525050565b60006020820190506128f260008301846128ce565b92915050565b612901816128bc565b811461290c57600080fd5b50565b60008135905061291e816128f8565b92915050565b6000806040838503121561293b5761293a612559565b5b60006129498582860161290f565b925050602061295a8582860161287a565b9150509250929050565b60008060006060848603121561297d5761297c612559565b5b600061298b8682870161290f565b935050602061299c8682870161290f565b92505060406129ad8682870161287a565b9150509250925092565b600080fd5b600080fd5b7f4e487b7100000000000000000000000000000000000000000000000000000000600052604160045260246000fd5b6129f9826127f7565b810181811067ffffffffffffffff82111715612a1857612a176129c1565b5b80604052505050565b6000612a2b61254f565b9050612a3782826129f0565b919050565b600067ffffffffffffffff821115612a5757612a566129c1565b5b612a60826127f7565b9050602081019050919050565b82818337600083830152505050565b6000612a8f612a8a84612a3c565b612a21565b905082815260208101848484011115612aab57612aaa6129bc565b5b612ab6848285612a6d565b509392505050565b600082601f830112612ad357612ad26129b7565b5b8135612ae3848260208601612a7c565b91505092915050565b60008060408385031215612b0357612b02612559565b5b600083013567ffffffffffffffff811115612b2157612b2061255e565b5b612b2d85828601612abe565b9250506020612b3e8582860161287a565b9150509250929050565b600060208284031215612b5e57612b5d612559565b5b6000612b6c8482850161290f565b91505092915050565b612b7e8161264a565b82525050565b6000602082019050612b996000830184612b75565b92915050565b612ba8816125e8565b8114612bb357600080fd5b50565b600081359050612bc581612b9f565b92915050565b60008060408385031215612be257612be1612559565b5b6000612bf08582860161290f565b9250506020612c0185828601612bb6565b9150509250929050565b600067ffffffffffffffff821115612c2657612c256129c1565b5b612c2f826127f7565b9050602081019050919050565b6000612c4f612c4a84612c0b565b612a21565b905082815260208101848484011115612c6b57612c6a6129bc565b5b612c76848285612a6d565b509392505050565b600082601f830112612c9357612c926129b7565b5b8135612ca3848260208601612c3c565b91505092915050565b60008060008060808587031215612cc657612cc5612559565b5b6000612cd48782880161290f565b9450506020612ce58782880161290f565b9350506040612cf68782880161287a565b925050606085013567ffffffffffffffff811115612d1757612d1661255e565b5b612d2387828801612c7e565b91505092959194509250565b60008060408385031215612d4657612d45612559565b5b6000612d548582860161290f565b9250506020612d658582860161290f565b9150509250929050565b8082525050565b6000602082019050612d8b6000830184612d6f565b92915050565b600081519050612da081612863565b92915050565b600060208284031215612dbc57612dbb612559565b5b6000612dca84828501612d91565b91505092915050565b7f4e487b7100000000000000000000000000000000000000000000000000000000600052601160045260246000fd5b6000612e0d8261264a565b9150612e188361264a565b9250828201905080821115612e3057612e2f612dd3565b5b92915050565b7f4e487b7100000000000000000000000000000000000000000000000000000000600052603260045260246000fd5b6000612e708261264a565b91507fffffffffffffffffffffffffffffffffffffffffffffffffffffffffffffffff8203612ea257612ea1612dd3565b5b600182019050919050565b7f4e487b7100000000000000000000000000000000000000000000000000000000600052602260045260246000fd5b60006002820490506001821680612ef457607f821691505b602082108103612f0757612f06612ead565b5b50919050565b6000606082019050612f2260008301866128ce565b612f2f6020830185612b75565b612f3c60408301846128ce565b949350505050565b7f5468652050726f7669646564206e6674206e6f74206578697400000000000000600082015250565b6000612f7a6019836127bc565b9150612f8582612f44565b602082019050919050565b60006020820190508181036000830152612fa981612f6d565b9050919050565b7f496e636f7272656374207061796d656e7420616d6f756e740000000000000000600082015250565b6000612fe66018836127bc565b9150612ff182612fb0565b602082019050919050565b6000602082019050818103600083015261301581612fd9565b9050919050565b600081905092915050565b50565b600061303760008361301c565b915061304282613027565b600082019050919050565b60006130588261302a565b9150819050919050565b7f5472616e73666572696e6720455448206661696c656400000000000000000000600082015250565b60006130986016836127bc565b91506130a382613062565b602082019050919050565b600060208201905081810360008301526130c78161308b565b9050919050565b7f496e73756666696369656e742066756e64732073656e74000000000000000000600082015250565b60006131046017836127bc565b915061310f826130ce565b602082019050919050565b60006020820190508181036000830152613133816130f7565b9050919050565b7f4661696c656420746f207472616e73666572206c697374696e6720666565207460008201527f6f20746865206f776e6572000000000000000000000000000000000000000000602082015250565b6000613196602b836127bc565b91506131a18261313a565b604082019050919050565b600060208201905081810360008301526131c581613189565b9050919050565b6131d581612683565b82525050565b60006060820190506131f060008301866131cc565b6131fd60208301856131cc565b61320a6040830184612b75565b949350505050565b600081905092915050565b6000613228826127b1565b6132328185613212565b93506132428185602086016127cd565b80840191505092915050565b600061325a828561321d565b9150613266828461321d565b91508190509392505050565b60008190508160005260206000209050919050565b60006020601f8301049050919050565b600082821b905092915050565b6000600883026132d47fffffffffffffffffffffffffffffffffffffffffffffffffffffffffffffffff82613297565b6132de8683613297565b95508019841693508086168417925050509392505050565b6000819050919050565b600061331b6133166133118461264a565b6132f6565b61264a565b9050919050565b6000819050919050565b61333583613300565b61334961334182613322565b8484546132a4565b825550505050565b600090565b61335e613351565b61336981848461332c565b505050565b5b8181101561338d57613382600082613356565b60018101905061336f565b5050565b601f8211156133d2576133a381613272565b6133ac84613287565b810160208510156133bb578190505b6133cf6133c785613287565b83018261336e565b50505b505050565b600082821c905092915050565b60006133f5600019846008026133d7565b1980831691505092915050565b600061340e83836133e4565b9150826002028217905092915050565b613427826127b1565b67ffffffffffffffff8111156134405761343f6129c1565b5b61344a8254612edc565b613455828285613391565b600060209050601f8311600181146134885760008415613476578287015190505b6134808582613402565b8655506134e8565b601f19841661349686613272565b60005b828110156134be57848901518255600182019150602085019450602081019050613499565b868310156134db57848901516134d7601f8916826133e4565b8355505b6001600288020188555050505b505050505050565b600081519050919050565b600082825260208201905092915050565b6000613517826134f0565b61352181856134fb565b93506135318185602086016127cd565b61353a816127f7565b840191505092915050565b600060808201905061355a60008301876128ce565b61356760208301866128ce565b6135746040830185612b75565b8181036060830152613586818461350c565b905095945050505050565b6000815190506135a08161258f565b92915050565b6000602082840312156135bc576135bb612559565b5b60006135ca84828501613591565b91505092915050565b60006040820190506135e860008301856128ce565b6135f56020830184612b75565b9392505050565b7f4e487b7100000000000000000000000000000000000000000000000000000000600052601260045260246000fdfea264697066735822122020c9392487a786f9e907922b9df5d2956effa3e4361e07897511809e054ad9d964736f6c63430008180033",
  "linkReferences": {
    "contracts/Counters.sol": {
      "Counters": [
        {
          "length": 20,
          "start": 2338
        },
        {
          "length": 20,
          "start": 3606
        },
        {
          "length": 20,
          "start": 4220
        },
        {
          "length": 20,
          "start": 4889
        },
        {
          "length": 20,
          "start": 5686
        }
      ]
    }
  },
  "deployedLinkReferences": {
    "contracts/Counters.sol": {
      "Counters": [
        {
          "length": 20,
          "start": 1215
        },
        {
          "length": 20,
          "start": 2483
        },
        {
          "length": 20,
          "start": 3097
        },
        {
          "length": 20,
          "start": 3766
        },
        {
          "length": 20,
          "start": 4563
        }
      ]
    }
  }
}